:100000008FC60000AAC60000A8C60000A6C6000051
:10001000A4C60000A2C60000A0C600009EC6000044
:100020009CC600009AC600000C9428310C94103233
:100030000C94091B92C6000090C600008EC60000FA
:100040008CC600008AC6000088C6000086C6000074
:1000500084C600000C94043180C600007EC60000F7
:100060007CC600007AC6000078C6000076C6000094
:1000700074C6000072C6000070C600006EC60000A4
:100080006CC600006AC6000068C6000066C60000B4
:1000900064C6000062C6000060C600005EC60000C4
:1000A0005CC600005AC6000058C600000501098061
:1000B000A101850319012AB700150126B700950192
:1000C00075108100C0050C0901A101850419012AE0
:1000D000A002150126A002950175108100C005013E
:1000E0000906A1018506050719E029E71500250184
:1000F0009508750181020507190029EF15002501F2
:1001000095F075018102050819012905950575010C
:100110009102950175039101C005010902A1010930
:1001200001A1000509190129081500250195087587
:100130000181020501093009311581257F9502757C
:1001400008810609381581257F9501750881060506
:100150000C0A38021581257F950175088106C0C0FB
:100160000660FF0961A1010962150026FF009520C4
:10017000750881020963150026FF00952075089116
:1001800002C005010906A101050719E029E71500CC
:100190002501950875018102950175088101050702
:1001A000190029FF150026FF009506750881000536
:1001B000081901290515002501950575019102957C
:1001C0000175039101C009027400040100A0FA093D
:1001D0000400000103010100092111010001224472
:1001E0000007058103080001090401000203000063
:1001F00000092111010001222200070583032000CC
:1002000001070504032000010904020001030102A3
:100210000009211101000122470007058203100097
:10022000010904030001030000000921110100017C
:10023000226D000705850320000112010002000065
:1002400000089732744900010102030118034500B8
:1002500078007600560041002F006C006F006300AC
:1002600061006C00000016034500720067006F001B
:1002700064006F007800200045005A000000280349
:100280005A005300410020005400650063006800DC
:100290006E006F006C006F006700790020004C005A
:1002A00061006200730000000403090400201030A4
:1002B0000050406000312141006151710012022262
:1002C00000423252007262820013032300534363E0
:1002D00000140424006454740015052500453555A8
:1002E0000075658500160626004636560017072756
:1002F00000473757002818380058486800392949FE
:1003000000695979001A0A2A004A3A5A0120103025
:1003100001504060013121410161517101120222FD
:10032000014232520172628201130323015343637B
:100330000114042401645474011505250145355543
:1003400001756585011606260146365601170727F1
:100350000147375701281838015848680139294999
:1003600001695979011A0A2A014A3A5A0000000023
:10037000000000000000000000000000000000007D
:10038000000000000000000000000000000000006D
:10039000000000000000000000000000000000005D
:1003A000000000000000000000000000000000004D
:1003B000000000000000000000000000000000003D
:1003C000000000000000000000000000000000002D
:1003D000000000000000000000000000000000001D
:1003E000000000000000000000000000000000000D
:1003F00000000000000000000000000000000000FD
:1004000000000000000000000000008C22FF21FF1F
:10041000FF21FFFF8C22FF8C22FF8C22FF21FFFF98
:1004200021FFFF8C22FF8C22FF8C22FF8C22FF8B6E
:10043000E3D28BE3D28C22FF00000000000000001A
:1004400000000000000000000000000000000000AC
:100450000000008C22FF63F3E0D3FFFFD3FFFF8C8B
:1004600022FF8C22FFD3FFFF63F3E063F3E0D3FFAF
:10047000FF8C22FF21FFFF21FFFF63F3E08C22FFAF
:100480000000000000000000000000008B5F865F9D
:10049000836F806F7F6B7D677C637D700F711193BD
:1004A00012A613C915EB17FE1AFF1EFF05AB0FAD01
:1004B00016BE17BE19CF1BDF1DEF1DFF1CFB1EF460
:1004C00020F220F21AF718FE15FD10FC0E02F5FFBF
:1004D000F5FFF5FF0E020E020E020E020E020E02D4
:1004E00018811CF018810E020E020E02845F795BE7
:1004F0006C6A5A79468B399F32BF2CCF27EF20FF89
:100500001BFF16FF12FF08EDFCECF1DF965F977EF4
:10051000A078B086C185D885EA96F7B703C90ADC0A
:100520000FFF12FF17FF18FC19F81AF5A579A78914
:10053000AABAADDAB1EAB7FABEFAC8F9D8F9E6FA5A
:1005400002F91DE92CFF35FE3FEE55EE1AB817658E
:10055000155515551555116605FC04FF04FF07FCDC
:1005600017B81AB81CB832EE36EF36EF099F03BD44
:10057000FCBCF8BCF7CBF5EBF4FAF5F9FCF610F49B
:1005800028F220F306F5F8F8F7FBF9FD7426713A26
:10059000714F6E4F6D5F696F5F6E557E548F549FC4
:1005A00053BF50CE45ED2EFC2AF928F68B4F8B5DBC
:1005B0008B6C8A7C898C89AB89B984BA7EEB7CF69A
:1005C0007CF67CFB82CA89B989C989D8F6CFFADE64
:1005D000FDED01FD06FD0CFD12FC16FA14FC11FDEB
:1005E0000CFD07FDFFFCF8FCF1FEEBFF9C369B4683
:1005F0009B469A469B569C659E749F839E9182A0C3
:1006000031C12AE327F525F724FA24FFAA7DB49DFA
:10061000C49ED19FDCAFE3CFE9EFF5FC03FA0DFBFD
:1006200015FC1CFD2BFF2AFF44F484FF0710081063
:100630000C200D300F31104114525F607E757095A3
:1006400036B827DE21FF19FE0DFE05FECC6DC27BFC
:10065000B789A9979B99919A899B829C7B9D75AD3F
:100660006CBB5DC947DA38DD2EEF27FF436F379F3C
:100670002FCF30E830F42DF227F211F508FB01FFFF
:1006800002FE02FE00FEFDEFFEEFFFDF00010101B2
:10069000010101010101020202020202020202033F
:1006A000030303030303030404040404040405050F
:1006B00005050506060606060707070707080808D2
:1006C00008090909090A0A0A0B0B0B0C0C0C0D0D81
:1006D0000D0E0E0E0F0F0F10101111111212131319
:1006E0001414151516161717181819191A1A1B1B92
:1006F0001C1D1D1E1E1F20202122222324242526EE
:1007000026272829292A2B2C2D2D2E2F3031323225
:10071000333435363738393A3B3C3D3E3F40414231
:10072000434445464748494A4C4D4E4F5051535417
:10073000555658595A5B5D5E5F61626465666869CB
:100740006B6C6D6F7072737577787A7B7D7E80824B
:10075000838587888A8C8E8F91939596989A9C9E94
:10076000A0A2A3A5A7A9ABADAFB1B3B5B7BABCBEA4
:10077000C0C2C4C6C9CBCDCFD1D4D6D8DBDDDFE271
:10078000E4E7E9EBEEF0F3F5F8FAFDFF2900005796
:10079000E0001A7C350000001E00140004001D005B
:1007A000AE0028281F001A0016001B44E2002A0091
:1007B000200008000700064550002B2821001500E6
:1007C000092201574F004C21220017000A000500A2
:1007D0000000AA41615263520000350200002F0A56
:1007E0006252210B000002570000300A23001C0057
:1007F0000B3211000000A942240018000D00100067
:1008000052004B2A25000C000E00360051002C002F
:10081000260012000F0037002F4628002700130083
:100820003300380030472E2A2D00310034001B7C65
:100830002C09000029000000000001000000000059
:100840003A0035001E023502000001003B0036026E
:1008500025022E02000027783C00370238002F00C6
:10086000000028783D002D002E0030000000217887
:100870003E003102240222020000010001000000BB
:10088000000000000000407E0100000000000000A9
:10089000000020783F00230220021F020000010018
:1008A00040002F0226023302000001004100300206
:1008B000270236000000237842002102330037006F
:1008C00000002478430025023402340000000100B7
:1008D000010044004500010000000000010001008B
:1008E0000100010001000000010001000100010001
:1008F000010001000100D200CF0001000100010051
:100900000100CD00CE000100D10001000100D100A6
:10091000D0000100D200010001000100010001002F
:1009200000000100010001000000010000000100C2
:1009300001000100000001000000010001000100B1
:100940000100010000000100010001000100AC00F5
:10095000A9000100010001000100AE00AA00B600DC
:10096000010001000100AB00A8000100010001002E
:100970000100010001000100A6000100AE0001001D
:100980000100000029000057E0001A7C350000003B
:100990001E00050011001400AE0028281F000F00E3
:1009A00015001B00E2002A002000070017001000BD
:1009B00050002B2821001A00162206004F004C215F
:1009C00022001D000A0019000000AA416352010024
:1009D0000000350200002F0A6252210B000002576E
:1009E0000000300A2300417E1C000E000000A942D6
:1009F000240009000B32130052004B2A250012007C
:100A00000400447E51002C00260018000800437E9C
:100A10002F46280027000D000C00457E30472E2A67
:100A20002F003300427E1B7C2C09000001000100D6
:100A300001000100010000000100010001000100AF
:100A4000010001000100010001000100010001009E
:100A5000010001000100010001000100010001008E
:100A6000010001000100010001000100010001007E
:100A70000000010001000100000001000000010071
:100A80000100010000000100000001000100010060
:100A9000010001000000010001000100010001004F
:100AA000010001000100010001000100010001003E
:100AB000010001000100010001000100010001002E
:100AC000010001000100010001000100010001001E
:100AD0000100000001000100010001000100000010
:100AE00001000100010001000100010001000100FE
:100AF00001000100010001000100010001000100EE
:100B000001000100010001000100010001000100DD
:100B100001000100010001000000010001000100CE
:100B200000000100000001000100010000000100C0
:100B300000000100010001000100010000000100AF
:100B4000010001000100010001000100010001009D
:100B5000010001000100010001000100010001008D
:100B6000010001000100010001000100010001007D
:100B7000010001000100010001000000010001006E
:100B8000010001000100000001000100010001005E
:100B9000010001000100010001000100010001004D
:100BA000010001000100010001000100010001003D
:100BB000010001000100010001000100010001002D
:100BC0000000010001000100000001000000010020
:100BD000010001000000010000000100010001000F
:100BE00001000100000001000100010001000100FE
:100BF00001000100010001000100010001000100ED
:100C000001000100010001000100010001000100DC
:100C100001000100010001000100010001000100CC
:100C200001000000010001000100010001000000BE
:100C300001000100010001000100010001000100AC
:100C4000010001000100010001000100010001009C
:100C5000010001000100010001000100010001008C
:100C6000010001000100010000000100010001007D
:100C7000000001000000010001000100000001006F
:100C8000000001000100010001000100000001005E
:100C9000010001000100010001000100010001004C
:100CA000010001000100010001000100010001003C
:100CB000010001000100010001000100010001002C
:100CC0000100010001000100010000004C4C4C4CEF
:100CD0004C004C4C4C4C4C2A4C4C4C4C4C2A4C4CE4
:100CE0004C4C4C2A4C4C4C4C4C2A4C4C4C4C002AF6
:100CF0004C4C004C002A52520052002A525252527E
:100D0000002A52525252522A52525252522A52528D
:100D10005252522A52525252522A52525252520055
:100D200011241FBECFEFDAE0DEBFCDBF12E0A0E09E
:100D3000B1E0E2E6FEE602C005900D92AA3EB107E0
:100D4000D9F725E0AAEEB2E001C01D92A73FB20795
:100D5000E1F70E940B2C0C94AA3652C9A3EEB2E024
:100D600041E050E0F8948D91E82FE295EF70F0E0CB
:100D700021A18F70BA0102C0660F771F8A95E2F732
:100D8000CB01962F9095922391A392A1892B82A3B8
:100D9000789472E0A93EB70729F7089590E0FC0126
:100DA000EB52FD4F2081211119C0F89489539D4FBA
:100DB000FC012081E22FE295EF70F0E031A12F706D
:100DC00081E090E001C0880F2A95EAF7982F90956E
:100DD000932391A392A1892B82A3789408950F93D2
:100DE0001F93CF930CED12E0C7E0F80181918F01C2
:100DF000811102C08C2FD2DFCF5FCE30B1F7CF91FF
:100E00001F910F910895282F269F020E20E0211D8B
:100E10001124822F08959C0180E090E0269F020E0D
:100E2000811D369F800D911D1124830F911D089502
:100E3000CF93C82F862F642FC81728F48C1BE3DFAD
:100E40008C0FCF9108959C2F981B892FDCDFC81B36
:100E50008C2FF7CFA0E0B0E0E0E3F7E00C942D3466
:100E6000AC01262F693008F456C0683F08F027EF20
:100E70002850D22FD295D07F22952F7030E0220FAC
:100E8000331FFA01E20FF31F85919591682F092F07
:100E90000F7071E1079F002D1124192F12951F70FB
:100EA000179F102D1124F9013296E40FF51F25919B
:100EB0003591432F4F70479FD02C1124E32EE2949D
:100EC0009FE0E922E79EE02C1124C82FC21B621785
:100ED00010F4C22FC81BC0786C2F62274D2F8C27AF
:100EE000A7DFF82EFC26C091DD054D2F6D2D802F3C
:100EF0009FDF6C2F88DFC82F0091DE054D2F6E2DF0
:100F0000812F96DF602F7FDF6F2D7C2FCDB7DEB76F
:100F1000E7E00C94493420E0ACCF0F931F93382FB7
:100F2000292FCB01A32FB22F642F8D012227332726
:100F30004091DA054A1781F04091D8055091D905C2
:100F40000093DA05262F30E0322F2227240F351F99
:100F50003093D9052093D8055EDF2091D8053091D4
:100F6000D905820F931F1F910F910895259A2D9AED
:100F70000895269A2E9A0895279A2F9A08952598CB
:100F80002D982D98089526982E982E980895279894
:100F90002F982F980895FC018281813039F4958132
:100FA00092FD0FC0892F81708F5F0895823031F4D8
:100FB000858182FD05C081708D5F089586E008956A
:100FC00085E008959C01FB019A9581159F4180F46D
:100FD00031FB882780F934FF06C08295880F807E18
:100FE000806809950895880F33FFFBCF8860F9CF9B
:100FF00080E0F7CF982F92959F7024E0911102C066
:1010000020E0982F892F86958695811511F02E5F07
:10101000982F892F8695820F0895CF93DF93D82F2D
:10102000E9DFC82F5E98ABDFAEDFB1DFC150C7305C
:1010300038F4EC2FF0E0E455F94C0C94883496DF4A
:101040008D2FDF91CF91089591DF93DFF9CF8EDF60
:1010500093DFF6CF8BDF8DDFFBCF292F9E3090F50E
:10106000863080F590E036E0239F800D911D11249D
:10107000282F277041E001C0440F2A95EAF723E0AA
:10108000969587952A95E1F7FC01EE0FFF1FE80F73
:10109000F91FEA5AFA4F20E030E070E05191DF0189
:1010A000CB01022E02C0969587950A94E2F78170D3
:1010B00081958527842385278E932F5F3F4F23308B
:1010C000310561F70895292F9E3078F5863068F54F
:1010D00090E036E0239F800D911D1124682F6770EA
:1010E00023E0969587952A95E1F7FC01EE0FFF1F07
:1010F000E80FF91FEA5AFA4F40E050E080E02191F2
:1011000030E0062E02C0369527950A94E2F721704A
:101110003327042E01C0220F0A94EAF7822B4F5F77
:101120005F4F4330510559F7089580E0089580914D
:10113000550590E020E0022E001C00082817090643
:101140000CF008952F5FF7CFFC01DB018481813023
:1011500041F514968C911497813019F5918186E0B0
:10116000E081F0E0899FE00DF11D1124E453F34F7D
:1011700094919A32B1F011962C911197EC91F0E084
:10118000829FE00DF11D1124E453F34FE49181E0BF
:101190009E1301C080E091E0EA3209F090E0892BD3
:1011A000089581E00895809192059091910598139A
:1011B00001C008958F5F8770FACF80918905909163
:1011C0009005892B50918A05511591F09091150148
:1011D000913021F490918E0597FD0BC096E02EEE94
:1011E00032E040E0915048F4411110928A05852B7D
:1011F00008959EE126EF32E0F4CFF90161919F015D
:10120000611581F34F5FEECF982F909580918905FE
:1012100089238093890508957E30B8F46630A8F458
:101220008830B0F4E62FF0E096E0799FE00DF11DF4
:10123000112494E5899FE00DF11D1124EE0FFF1F8D
:10124000E457F84F85919591089580E090E00895D6
:1012500081E0FCCF803E9105D9F1C8F4813391053E
:1012600009F482C048F48932910509F472C08A32C7
:10127000910509F480C0089589339105E9F0823819
:101280009105D1F08533910509F45EC00895843E3F
:101290009105D9F148F4823E910539F1833E9105DB
:1012A00049F181EE90E00895863E9105C9F1873EAF
:1012B000910509F43EC0089520918E0523702111F7
:1012C00064C020918F0523FF14C089E290E0089547
:1012D00020918E0520FD45C030918F0530FF09C05B
:1012E00024FD24C083EE90E0089520918E0522FD18
:1012F000F7CF089520918E0522FD44C030918F05CF
:1013000030FD43C024FFF5CF11C020918F0521FF90
:10131000F0CF80918E0584FD09C087EE90E008959E
:1013200020918E0523FFE5CF24FFF7CF80E090E0EA
:10133000089520918E0523FD2BC030918F0531FF3C
:10134000E1CF84EE90E0089520918E0525FFD1CF66
:10135000BCCF20918E0525FD1EC020918F0523FF57
:10136000C8CF89E390E0089520918E0526FFC1CF74
:101370008AE290E0089520918E0526FFBACF81E39E
:1013800090E0089582EE90E0089580EE90E0089558
:1013900086EE90E0089585E390E0089590918E05A3
:1013A00092FF10C041E0282F2471243009F040E062
:1013B00031E0282F2871283009F030E0431711F070
:1013C0002CE0822793FF10C041E0282F24712431A4
:1013D00009F040E031E0282F2871283109F030E091
:1013E000431711F02CE0822730918F0530FF10C099
:1013F00051E0282F2171213009F050E041E0282FE1
:101400002871283009F040E0541711F029E08227B4
:1014100031FF10C041E0282F2171213109F040E057
:1014200031E0282F2871283109F030E0431711F0FE
:1014300029E0822794FD877E08951F93CF93DF9341
:1014400009DFEC01811522E5920708F052C08115F1
:1014500040E5940708F0CDC0803E910520F58D3C15
:10146000910508F0A1C0883A910570F4853A91057C
:1014700008F097C081309105B9F10497813A910540
:1014800098F1C0E0D0E030C0885A91094B97C8F776
:10149000C85AD0E0CC0FDD1FC55ADD4F0990D88166
:1014A000C02DD46421C0811550E49507B0F4C11556
:1014B00080E2D80708F0B2C0C83ED105A8F0CE013E
:1014C0009A9581159F41E8F68D2F68DF182FCE0180
:1014D0009927C0DEEC01D12B07C09927BBDECC27B2
:1014E000DF70C82BD92BD06ACE01DF91CF911F912D
:1014F0000895803842E59407C8F5803652E595078F
:1015000008F05BC0C03482E5D807D0F4C03292E561
:10151000D90708F04BC08C2F8695869520E2829FD4
:10152000C0011124C37021E030E0A90102C0440FC2
:10153000551FCA95E2F7EA01C82BD92BDD68D4CF35
:101540008C2F86958695877050E2859FC001112467
:10155000C37021E030E0A90102C0440F551FCA95B5
:10156000E2F7EA01C82BD92BDC68BECF803C52E5FC
:10157000950758F48F71C03AD245A0F590E0982FA6
:101580008827EC01C46FD06AAFCF805C924580970A
:1015900008F077CFDC2FCC27CC27DF71C06FD06A63
:1015A000A3CFA497D064A0CFD0659ECFCF71D0E059
:1015B000DC2FCC27C16FD06A97CF86958695877030
:1015C00020E2829FC0011124C37021E030E0A90114
:1015D00002C0440F551FCA95E2F7EA01C82BD92B68
:1015E000DA6882CFDBDEC82FD0E0DC2FCC27D062D8
:1015F0007BCF8F71D3DE93E0CC0FDD1F9A95E1F79F
:10160000CC27DF70282F30E084FF04C050E1859F95
:1016100090011124C22BD32BD06966CF8D2F8F71EF
:10162000BDDE182FCE01992715DEEC01D12BDFCFBF
:10163000A0E0B0E0EEE1FBE00C942D347C010091E1
:101640008C058091E405082BC7E0D0E010E0C801CC
:101650000C2E02C0959587950A94E2F780FD09C08B
:101660002197A8F7D12C8D2DCDB7DEB7E7E00C94EC
:101670004934DC2EB7018C2FCFDDDFDE019781F3FB
:10168000F2CF0F931F93CF93FC01858100811181CD
:10169000811579F0611569F0C801CADFC82F682F7C
:1016A000C801DBDCB8018C2FB7DDCF911F910F9102
:1016B0000895C80108DDC82FF5CFCF93DF93D82F49
:1016C000C92FB6DF6D2F7C2FA7DDB7DEDF91CF915D
:1016D0000895FC018481811599F080819181EDDF6D
:1016E000282F92959F70963099F060F4925F9F70CA
:1016F000923030F4203FB1F038F481E0283E38F0E9
:1017000080E008959A5FF3CF81E0243FC9F7089500
:1017100091E0213F09F090E081E0283E08F080E070
:10172000892B089581E0089580E00895CF92DF929B
:10173000EF92FF921F93CF93DF93172FE82FF0E0E4
:10174000E457F94F71110CC0E4918E2F7E2F6E2F4C
:10175000DF91CF911F91FF90EF90DF90CF90089590
:10176000E62EF12CC72ED12CF491EF2F86E0689F46
:1017700090011124CFEFD0E0C901BE010E940E34C8
:10178000AB01EE0CFF1C65E5649FC001659F900DE9
:101790001124E81AF90A6E2D660F6E0D7E01EC1801
:1017A000FD08FE9DD001FF9DB00D11248B2F169FCB
:1017B00070011124EF2CFF246E01CE18DF08760192
:1017C000FE9D6001FF9DD00C11247E01E61AF108F8
:1017D000B701169F7001179FF00C1124EF2CFF2406
:1017E000CE19DF09FC9F7001FD9FF00C11247F2DA5
:1017F00043305105C1F02C3F334058F4413051057E
:10180000B1F04230510509F0A2CFEB2F8F2D7F2F81
:101810009ECF4430510571F04630510509F497CF01
:101820007B2F8D2D94CF7D2DEB2F8F2F90CF7F2F62
:10183000ED2D8DCFEF2D7B2FF8CF9C0182309105C0
:1018400008F408959FEF213E8EE1380740F4C90166
:1018500045E0969587954A95E1F798E0980F61E005
:10186000E62FE90FFF27FF1FAF0155954795842FFE
:10187000449FF001459FF00DF00D11242E173F07F6
:1018800038F49FEF940F961758F78FEF860F08954F
:101890004F3FE9F361E0640FF6CF982FE82F96FDF4
:1018A000E0958E2F8F7096FD8F5FE695E695E69515
:1018B000E670F0E0E159FE4F2181289F202D812D17
:1018C000112422952F708295807F282B8081820F92
:1018D00097FD819580580895CF93DF93D62FC72F1A
:1018E000682F81E0841B8FDA6D2F7C2FDF91CF91E1
:1018F00008950C949F1A08950C94F11A0895982F46
:10190000990F990F890F95E0980F913308F090E3A4
:101910000895A9E0B0E0EFE8FCE00C942234582EE2
:1019200080911201851123C09091DB059370209165
:10193000110130E081E09217130609F480E08093F2
:1019400004018091E00590910301981731F0809394
:10195000030140E060E080E0CFDF89E0882E58148A
:1019600080F4E52DF0E0ED54F94C0C94883481E0DE
:10197000E6CF80910401811521F040E060E080E035
:10198000BBDF80E018C080910201B9DF082FF92E7B
:101990006091DC057091DD058091DE05C7DEE62EE5
:1019A000D72EC82E10E0F01609F0E0F481E0B0E385
:1019B0009B2EF91430F7909102019F5F90930201E2
:1019C00081110CC082E08093470180910401811154
:1019D00005C0511003C083E0809347012996E2E1DE
:1019E0000C943E34F801E55DFD4F80819091030138
:1019F0008923811529F02C2D4D2D6E2DC80179DFFD
:101A00000F5F1F4FD0CF8091020179DF082FD92EB1
:101A10002091DF0531E0230F08F42FEF30E040E0A4
:101A200050E06FEF7FEF80E090E00E946C3479012E
:101A300010E0CC24C394B22EAF2C202F0D1520F033
:101A400081E030E3D316B6CFF801E55DFD4F80812C
:101A50009091030189238115F1F04091A104415037
:101A6000042E000C550B47FF19C08B2D9A2D609149
:101A7000DF052C2D620F08F46FEFCDD9AC0160911A
:101A8000DC057091DD058091DE0526DF4FDE472FF6
:101A9000282FC8012EDF0F5F1F4FCFCFFA01EF5560
:101AA000FB4F818982130AC0FA01EE0FFF1FEF5529
:101AB000FB4F818D928D8E159F05C8F241505109C3
:101AC000D2CF80918104811117C0ECECF1E02CE2BF
:101AD00032E060E48081681708F4682F32962E1790
:101AE0003F07C1F7862F869590E08054904C70E0B8
:101AF0000E945934609381048091020100DFD92E45
:101B00000091DC050695069506950F7040E2049F4E
:101B10008001112404571B4FE82EF12CED1420F006
:101B200081E090E3D91646CFF701E55DFD4F808156
:101B30009091030189238115C1F0F701EE0FFF1F7A
:101B4000E453FE4F608180918104689FB0011124AD
:101B5000E6E076956795EA95E1F76095C8017AD950
:101B6000E5DD472F282FC701C4DE8FEFE81AF80AFA
:101B7000D5CF80910201C3DE082F792E2091DC059C
:101B80002695269526952F70A0E22A9F9001112474
:101B9000F901E457FB4F7F014091DF0546954695DB
:101BA00046954F5F60919C0470919D0480919E04C6
:101BB00090919F04B2D95C016C01D694C794D694DD
:101BC000C7943C2C80E48C0D68DE90E8692E680E8A
:101BD0008C2D63DE20E8422E480E8A2D5EDE86952F
:101BE000869530E2C32EC80EDA2CDD0C10E0C80159
:101BF000880F991F9C0125533E4F590188248A94D0
:101C0000912C701609F020F481E0A0E37A16D2CE70
:101C1000F801E55DFD4F80819091030189238115D5
:101C200009F448C0D5012C9111963C91442D4203F2
:101C3000B001112477FF02C061587F4F660F672FF4
:101C4000661F770B462D4303C001112497FF02C086
:101C500081589F4F880F892F881F990B262E280E99
:101C6000462D4203C001112497FF02C081589F4FA7
:101C7000880F892F881F990B8D19442D43039001DC
:101C8000112437FF02C021583F4F220F232F221F5C
:101C9000330B821B02DE6C2DB6D8632D620D680FEC
:101CA00067FD0EC0660FC701D5D840DD472F282F2E
:101CB000C8011FDE0F5F1F4F92E0A90EB11CA1CF1C
:101CC000C401861B9109BC01EDCF10910201812F47
:101CD00016DE382E492E8091DC05869586958695F0
:101CE0008F70B0E28B9FC0011124FC01E457FB4FC1
:101CF0003F011111CEC0809104018115B1F0109205
:101D00008B04109292041092990480919C049091FB
:101D10009D04A0919E04B0919F04809383049093AE
:101D20008404A0938504B0938604B0918204F7E004
:101D3000BF9F90011124890109571B4FF801A4810D
:101D4000A11166C0C0909C04D0909D04E0909E04B8
:101D5000F0909F0440918304509184046091850425
:101D60007091860446015701841A950AA60AB70A9B
:101D70008FEF88169806A8068FE7B80608F048C0C7
:101D8000609100017091010145E058E0649FC0013D
:101D9000659F900D749F900D1124875E994C9093D0
:101DA000010180930001890FE0E38E9FC00111249F
:101DB000892F990F990BF801D182C082AC01440F91
:101DC000551F45535E4FFA014081F8014283880F49
:101DD000991FFC01E453FE4F808191E09B0FB230CC
:101DE00009F0A92FF901E957FB4F838381E0848330
:101DF000A0938204F8EECF0EF3E0DF1EE11CF11C8D
:101E0000C0928304D0928404E0928504F092860408
:101E1000A7E8EA2EA4E0FA2ED70114968C91149725
:101E2000811579F16091DF05669566956F5F809108
:101E30009C0490919D042D913C91821B930B0E94D8
:101E40000B076C018C3FB3E09B0708F043C08C018B
:101E50001695079516950795802F083340F50032A3
:101E6000B8F5880F880F800F8D5FF7018483069582
:101E70000F5F602F70E08FEF90E00E945934658310
:101E8000C682B7E0EB0EF11CECE9EE16E4E0FE06CC
:101E900019F6032D10E0C801880F991FDC01A55326
:101EA000BE4F6D014CE9842E44E0942EA2C09801EF
:101EB00020954BE7429FC001439F900D1124880F4E
:101EC000892F881F990B9195682F0E940307CDCF0A
:101ED00080ECCBCFD70114961C92D3CFF801E55DEF
:101EE000FD4F8081909103018923811509F47CC005
:101EF000E7E8EE2EE4E0FE2EF0E8AF2EB12CD7019D
:101F000014963C901497311409F459C0F60180815D
:101F100012969C91891B990B97FD01969595879533
:101F2000282F27FD2195D60111968C91F7019381D9
:101F3000891B990B97FD019695958795982F97FD8D
:101F40009195999FC0011124229F800D911D11240C
:101F500074DC282ED70115968C91829DC001112426
:101F60008F3F910560F58095282F2054203828F464
:101F7000022E0694200D205E02C026952056822F48
:101F8000632D0E940307382ED70116968C91B0E47A
:101F9000B81B8B2F220C220C220C820D7EDC805869
:101FA000232D382F3203C001112497FF02C081581E
:101FB0009F4F880F892F881F990BA80EB91E47E0E5
:101FC000E40EF11C8E149F0409F099CF6A2DA11420
:101FD00081E0B806B4F06FEFC3010E942A07A6DBC8
:101FE000472F282FC80185DC0F5F1F4F92E0C90ED5
:101FF000D11C401611F008F071CF81E0B0E34B1610
:10200000D9CCB7FEE9CF60E0E7CFA09002018A2DDE
:1020100076DC082FD92E2091DC052695269526956D
:102020002F70E0E22E9F90011124C90184579B4F2D
:102030007C014091DF054695469546954F5F60913E
:102040009C0470919D0480919E0490919F040E9435
:102050008D07C82E22DC869590E8792E780EB12C5B
:102060009FEFA91AB90ACC0C10E023ED822E2EE8BE
:10207000922ED01609F020F481E0B0E3DB169ACC62
:10208000F801E55DFD4F8081909103018923811561
:10209000B9F0D501A89D5001A99DB00CB89DB00C18
:1020A00011248C2D8B0DF9DB672D0E940307682FFF
:1020B000C7010E942A073ADB472F282FC80119DCE5
:1020C0000F5F1F4FD6CF8091020119DC082F992E88
:1020D0002091DC052695269526952F70E0E22E9F0F
:1020E00090011124C90184579B4F7C014091DF0569
:1020F000469546954F5F60919C0470919D04809138
:102100009E0490919F040E948D07782E10E0C801D4
:10211000880F991FDC01A553BE4F6D0180E2882E08
:10212000901609F020F481E090E3991643CCF80171
:10213000E55DFD4F8081909103018923811509F4AC
:1021400046C0D601EC91E057FF0B11968C91282FD9
:102150002052330B59016F2F60788032D1F037FF56
:1021600004C0222733272A193B09BF01620F731FBE
:10217000F7FD33C0CF01821B930BA5E0880F991F99
:10218000AA95E1F70E945934382D361B632FB7FC0E
:102190006195662E670CEE9F9001EF9F300D300D1C
:1021A0001124AA9CC001AB9C900D900D1124820FAC
:1021B000931F43DB8695681A862D6FDB682FC70156
:1021C0000E942A07B3DA472F282FC80192DB0F5F3E
:1021D0001F4F42E0C40ED11CA3CFCB0165E0880F96
:1021E000991F6A95E1F7B9016E1B7F0B0E94593464
:1021F00080E6861B682FCBCF8091020180DBD82E32
:1022000099878091DC058695869586958F70A0E2EA
:102210008A9FC0011124FC01E457FB4F1F017090FD
:10222000A1049E012F5F3F4F490188E0D9011D9213
:102230008A95E9F70AEB14E079018E2D8819871544
:1022400088F00D2D10E0C801880F991FFC01E5539F
:10225000FE4F7F01A984A01609F098F581E02A2D90
:102260002033A8CB6091DF05669566956F5FF80116
:10227000819191918F010E940B079C018115F1E0E2
:102280009F0750F4883360F48032C8F4880F880FB9
:10229000880F8C5FD7018C93BFEFEB1AFB0ACDCF71
:1022A0002095309544EA249FC0011124880F892F7E
:1022B000881F990B9195682F0E940307EBCF8FEF32
:1022C000E9CFF801E55DFD4F8081909103018923FD
:1022D000811519F1540131EAC32E34E0D32E412C7B
:1022E0008C2DA1EAB4E08A1B8715E8F0642DC101AA
:1022F0000E942A07D62EC72EB0E24B1638F4642D62
:10230000660F640D660F605C0E9403076D2D7C2DC7
:102310000DDA472F282FC801ECDA0F5F1F4FE2E0DC
:10232000EE0EF11C97CFD5016D905D01611409F49B
:102330003FC0F7018081D60111969C91891B990BB2
:1023400097FD019695958795482F47FD4195F70193
:102350008181D60119969C91891B990B97FD019655
:102360009C0135952795822F87FD8195453100F594
:102370008531F0F48802C00111244402800D911DC2
:102380001124893BB1E09B079CF457DAE4EF8E9F60
:10239000802D1124662D81500E940307242D382F93
:1023A000230F08F42FEF422E4FEF241709F49ECF8E
:1023B0008FEFC81AD80A94CF8091DB058370811102
:1023C00002C0109247018091DB058C7F8160809371
:1023D000DB050895282F35EB2303C001112497FF57
:1023E00004C080589109892F089580589F4FFBCFD2
:1023F0008091790580FD17C081FD17C082FD19C04D
:1024000080917805811599F08C3398F428E3829FA8
:10241000C00111246CE370E00E945934611571050C
:1024200051F0862F08956EE0FCCF6CE1FACF68E0A2
:10243000F8CF68E3F6CF81E008958091790580FDBB
:1024400019C081FD15C082FD17C0809177058115E7
:1024500089F08C3388F427E0829FC00111246CE35B
:1024600070E00E9459346115710541F0862F08957E
:1024700063E0FCCF61E0FACF67E0F8CF81E0089538
:10248000FA01309709F009950895E0913B05F09124
:102490003C05309739F00190F081E02D309711F034
:1024A0000995089580E00895A3E0B0E0EAE5F2E13F
:1024B0000C9432349C018091330390913403821741
:1024C0009307B1F03093340320933303E0913B053D
:1024D000F0913C05309761F00084F185E02D309754
:1024E00039F083E089833B832A83CE0101960995E5
:1024F0002396E2E00C944E34A3E0B0E0E2E8F2E18F
:102500000C9432349C0180913103909132038217F4
:102510009307B1F03093320320933103E0913B05F0
:10252000F0913C05309761F00084F185E02D309703
:1025300039F084E089833B832A83CE010196099593
:102540002396E2E00C944E3490911501913091F075
:10255000AEEEB2E0EFEF90E02D91821751F0EF3F39
:1025600019F4211101C0E92F9F5F9630A9F7EF3FC1
:10257000C9F4089590918E0597FFEACFE82FE6956C
:10258000E695E695803FA8F7F0E0EC50FD4F8770A8
:1025900021E030E001C0220F8A95EAF78281822B88
:1025A000828308950E2E000CFF0BE451FD4FF8CFEF
:1025B00090911501913021F490918E0597FD0CC0FA
:1025C000EEEEF2E09191891302C0DF011E9252E01B
:1025D000E43FF507B9F70895E82FE695E695E69507
:1025E000803FC8F7F0E0EC50FD4F877021E030E00D
:1025F000A90102C0440F551F8A95E2F7CA018095D0
:1026000092818923828308958091140108952FB7C0
:10261000F89460912D0370912E0380912F03909177
:1026200030032FBF089588E19AE00FB6F894A8957B
:10263000809360000FBE90936000FFCFFC019B0170
:1026400080912303909124038617970740F0672B0E
:1026500029F48091E8008E778093E800C90140E07A
:10266000009741F4411106C08091E80082FF2FC01D
:1026700080E00895209118052115A9F12530A9F1D0
:102680002091E80023FD2DC02091E80022FDECCF31
:102690002091E80020FFE4CF3091F3002091F20078
:1026A000009719F02830310558F041E02830310505
:1026B00009F040E02091E8002E772093E800D0CF89
:1026C00041914093F10001972F5F3F4FE9CF8091F7
:1026D0001805811541F0853041F08091E80083FFB5
:1026E000C3CF81E0089582E0089583E0089580914A
:1026F0001D0387FF13C08091E80082FF06C0809110
:10270000E8008B778093E800089580911805811187
:10271000F2CF0895809118058115D9F38091E800D2
:1027200080FFF8CF8091E8008E77ECCF2091E40015
:102730003091E50095E6A9012091EC00822F81708F
:1027400020FF06C08091E80080FF06C080E0089569
:102750002091E80022FD1AC080911805811589F0AA
:10276000853089F08091EB0085FD0FC02091E40059
:102770003091E50042175307F9F29A95E1F684E0AB
:10278000089582E0089583E0089581E00895E8EDDA
:10279000F0E080818E7F80831092E2001092DA0058
:1027A0001092E100A0EEB0E08C9181608C9380816A
:1027B0008F77808319BCA7EDB0E08C918E7F8C93CE
:1027C00080818F7E808310921C0308958091A004E5
:1027D00081608093A0040895EBEDF5E0808191E0A5
:1027E0008927808310924701F1CFEBEDF5E024813A
:1027F00030E1231B08F420E02483E8CFEBEDF5E083
:10280000248130E1230F08F42FEF2483DFCF909150
:10281000DB059370911539F08093DC056093DD053D
:102820004093DE05D3CF0895EBEDF5E0818190E094
:10283000438162810896EBCFEBEDF5E08181438126
:1028400062818850990BE3CFEBEDF5E0628120E1E6
:10285000620F08F46FEF8181438190E0D8CFEBEDF8
:10286000F5E0628120E1621B08F460E08181438130
:1028700090E0CDCFEBEDF5E0438120E1420F08F48D
:102880004FEF8181628190E0C2CFEBEDF5E04381B3
:1028900020E1421B08F440E08181628190E0B7CFE3
:1028A0009091DB059370911581F0811579F0893055
:1028B00078F48F73880F880F9091DB059370892BC4
:1028C0008093DB051092470181CF089581E0F2CF1C
:1028D00088E0F0CF8091DB05869586958F5F893003
:1028E00008F081E0DDCF8091DB05869586958A959D
:1028F00009F488E0D5CF982F9093E900891771F0FB
:102900007091EC002091ED005091F00021FD09C084
:102910009F5F973089F78093E9000895762F242FE1
:1029200050E03091EB003E7F3093EB003091ED00B2
:102930003D7F3093ED003091EB0031603093EB0040
:102940007093EC002093ED005093F0002091EE0086
:1029500027FDDECF0895A0E0B0E0E1EBF4E10C94B8
:102960002C34C8EDD0E088818F7E8883E7EDF0E0DD
:1029700080818160808384E082BF81E080931C033A
:1029800088818E7F888302EE10E0F8011082109219
:10299000DA0081EEC82ED12CF601108288818F7763
:1029A000888388818068888388818F7D888319BC2B
:1029B0001092180510921B031092CC0410921A0367
:1029C00090EEE92EF12CF70180818B7F8083888146
:1029D0008160888342E060E080E08DDFF6018081E5
:1029E0008E7F8083F8018081816080838081886010
:1029F0008083F70180818E7F8083888180618883D6
:102A0000CDB7DEB7E8E00C944834E09192059091A0
:102A1000910527E0E91302C080E00895AE2FB0E0F1
:102A20002E9FF0011124ED56FA4F3181361306C066
:102A30003081381303C03581341304C0FD01319651
:102A4000E770E8CF81E00895A1E0B0E0EAE2F5E1C7
:102A50000C943034873010F52091480130914901B1
:102A6000232BC1F421E030E0A90102C0440F551F1F
:102A70008A95E2F7CA01809589830AE010E0AE01E9
:102A80004F5F5F4F62E180E40E942F3390934901D2
:102A9000809348012196E4E00C944C3490E0FC01D2
:102AA000EB52FD4F20812111F5CFF89489539D4FB2
:102AB000FC012081E22FE295EF70F0E031A12F7050
:102AC00081E090E001C0880F2A95EAF7932F982BB8
:102AD00091A392A18095892382A37894DBCFA1E072
:102AE000B0E0E5E7F5E10C9430344983E82FF0E0FD
:102AF000E359FE4F808105E010E021E030E0AE01B7
:102B00004F5F5F4F880F0E942F332196E4E00C94B3
:102B10004C34A3E0B0E0EFE8F5E10C942C3485EC04
:102B200093E09B838A838DE6E82E81E0F82EEA818C
:102B3000FB8180818115D9F0E059F1096F0124E210
:102B40002983F701808105E010E020E130E0A60153
:102B50006981880F0E942F33F981F05FF98320E1AA
:102B6000C20ED11CF43B69F7EA81FB8110828A8195
:102B70009B818C559F4F9B838A839FEFE91AF90AAB
:102B8000EA81FB81ED50F54091F62396E8E00C9444
:102B90004834F89481E08093E00080E28093D8008C
:102BA000E9ECF0E010828FE19EE40197F1F700C0BC
:102BB00000001DBA109268001CBC10BE1FBA109213
:102BC0007A0010926E0010926F00109271001092B5
:102BD00072001082ECEBF0E0108214B817B81AB84B
:102BE0001DB810BA108215B818B81BB81EB811BAA3
:102BF0000C94003F08950F931F93CF93DF938B01A5
:102C0000EA0190911805943051F58093E9008FEF17
:102C10009091E80095FD06C095ED9A95F1F70000BA
:102C20008A95B1F78091E80085FF19C07FDD811199
:102C300011C08091E80085FD06C08091E8008E7784
:102C40008093E800F3CFF80181918F018093F10028
:102C5000219779F78091E8008E778093E800DF91E3
:102C6000CF911F910F910895792F603229F440E29E
:102C700050E0682F83E0BFCF0895A0E2B0E0E3E426
:102C8000F6E10C9432349FEF99838A8360E2CE019F
:102C90000196EADFA096E2E00C944E34A0E2B0E0A8
:102CA000E4E5F6E10C943134182F8091E5058115A7
:102CB000E1F08091E405812B0E94FA079091E305F1
:102CC000981799F08093E3058FE39CE90197F1F75A
:102CD00000C0000085E089838091E3058A838EEF40
:102CE0008B8360E2CE010196BFDF812FA096E3E0E7
:102CF0000C944D34CF93C82F80918C058C2BCEDF54
:102D0000C093E405CF910895C9DF0E940D08809318
:102D10008C05089521E030E001C0220F8A95EAF782
:102D200080918C05822BF0CF21E030E0A90102C018
:102D3000440F551F8A95E2F7CA01809590918C0542
:102D40008923E2CF90918D058095892380938D050D
:102D5000282F277021110CC0891751F090918F05F1
:102D600092FF06C0869586958695DEDF10928D05CA
:102D70000895CF93DF93D82FC92F48E050E0682FF4
:102D8000792F81E038DF88E0ED2FFC2FA5E2B3E05A
:102D900001900D928A95E1F7DF91CF910895BC01E2
:102DA00040E250E085E027CFBC0145E050E082E002
:102DB00022CFBC0143E050E085E01DCFA2E0B0E0AF
:102DC000E4EEF6E10C94303480E290E09093490117
:102DD000809348018091F60581110EC00E94AF32A8
:102DE00081E08093F6052FEF83ED90E32150804042
:102DF0009040E1F700C0000080E09FE39A83898360
:102E00000AE010E022E030E0AE014F5F5F4F60E08B
:102E100080E40E942F339C019093490180934801E4
:102E2000892B71F422E030E0AE014F5F5F4F6CE020
:102E300080E40E942F339C019093490180934801C4
:102E4000822F2296E4E00C944C34A1E0B0E0EBE257
:102E5000F7E10C942F34F82E87E0F81638F58091BE
:102E600048019091490110E0892B91F419820AE000
:102E700010E021E030E0AE014F5F5F4F63E180E49E
:102E80000E947B33909349018093480119811095EA
:102E90001F73EF2DF0E0E851FA4F8081811781F127
:102EA000108381E02196E5E00C944B348F2DCCDD2E
:102EB000A3EEB2E020E030E010E051E04D91E42FCD
:102EC000E295EF70E05EF0E0808190E04F7002C02C
:102ED000959587954A95E2F780FD10C0852F022EC3
:102EE00001C0880F0A94EAF7182B2F5F3F4F263056
:102EF000310521F78F2D0E94CE06CACF80E0F4CF96
:102F000080E0D0CF90918F0592FB222720F92817DF
:102F100071F080FB92F990938F0560918E0570910E
:102F20008F0584E090E00E94213582E00BCF089568
:102F300080911501813069F580918E0587FF29C048
:102F40000E94DD088093F50240E250E06BE175E0FD
:102F500084EF92E00E94B934892BD1F080E2E4EF53
:102F6000F2E0ABE1B5E001900D928A95E1F7E091D6
:102F70003B05F0913C05309759F00480F581E02D38
:102F8000309731F086E08093F40284EF92E0099567
:102F900008950E94DD088093EC0248E050E06DE364
:102FA00075E08CEE92E00E94B934892B89F388E0B9
:102FB000ECEEF2E0ADE3B5E001900D928A95E1F719
:102FC000E0913B05F0913C05309711F30280F381CD
:102FD000E02D3097E9F28CEE92E0D9CF811531F0F7
:102FE00090918905892B80938905A2CF0895811539
:102FF00031F090919005892B8093900599CF089599
:10300000811519F00E94040993CF0895811539F0B4
:1030100080959091900589238093900589CF08959C
:10302000CF93DF93EC014A855B856E857F8528DA37
:103030009B819095809190058923809390058C8148
:103040000E94040975DF86E0FE0111928A95E9F776
:10305000DF91CF910895CF93DF93EC018D8181FDB6
:1030600015C082608D83809190059B81892B809310
:103070009005809189059C81892B8093890558DF73
:10308000488559856E857F85CE01FAD910928405D1
:10309000109283058D8180FD02C0CE01C1DFDF91DA
:1030A000CF91089548E050E067E170E08BED95E046
:1030B0000E94F8341092A0040895EBEDF5E085E04D
:1030C000808380914A0190914B01A0914C018183B2
:1030D0009283A3838FE784838FEF8583E3CF4F921F
:1030E0005F926F927F928F929F92AF92BF92CF9298
:1030F000DF92EF92FF92CF93DF93C0907D04D09048
:103100007E04E0907F04F090800481DA2B013C0182
:10311000530142018C189D08AE08BF0878DA60930D
:103120007D0470937E0480937F0490938004A0912B
:10313000DB04EBEDF4E04A2F50E02FEFC20ED21E7D
:10314000E11CF11CC418D508E608F708A5132FC028
:103150004093DB042091CB04C0E0211109C02091F1
:10316000DB05C22FC370C11519F0C22FC695C695D5
:1031700020914701223009F4E4C048F5211139C0FB
:103180001092020160939C0470939D0480939E04AE
:1031900090939F0489E2EBEDF4E0A1EAB4E00190A2
:1031A0000D928A95E1F781E08093470113C0218D4C
:1031B000328DC216D306E104F10420F441505F5F62
:1031C0003296C4CF280D391D328F218FF8CF23308E
:1031D00009F4C1C0DF91CF91FF90EF90DF90CF90C5
:1031E000BF90AF909F908F907F906F905F904F9027
:1031F00008958C2F0E94890CC11561F380914701BD
:10320000823041F78091E6058111E4CF80917F05FE
:1032100083FD8EC040918C0550E060E070E0DB01E2
:10322000CA01F4E0B695A79597958795FA95D1F7D9
:1032300024E00097A105B10519F4DB01CA0120E0E3
:10324000AC01BD01E2E07695679557954795EA9503
:10325000D1F7411551056105710519F02E5FDB01AC
:10326000CA01B695A79597958795892B8A2B8B2BA5
:1032700009F45EC021115CC0CCEFD3E0E12CF12C4D
:10328000FE0164913196749131968491962F972B1B
:10329000982B91110FC020E040E060E0C7010E9430
:1032A000790CFFEFEF1AFF0A239620E3E216F104F0
:1032B00039F790CF0E94960BD62EC72E782E6091AC
:1032C000DE0570E080E090E00E94B93520E030E05B
:1032D0004FE753E40E9425354B015C016D2D70E0F2
:1032E00080E090E00E94BB359401A5010E94473622
:1032F0000E948D35D62E6C2D70E080E090E00E940B
:10330000BB359401A5010E9447360E948D35C62E1B
:10331000672D70E080E090E00E94BB359401A5012C
:103320000E9447360E948D35262F4C2D6D2DB6CF2D
:103330008091E00581114ECF40E060E00E947C0C5E
:1033400049CFC09312018091DB05837080931101F6
:10335000E0DB83E029CF8091A0048111A3DEC0903F
:103360009C04D0909D04E0909E04F0909F044FD95F
:103370006C197D098E099F096A31710581059105D6
:1033800008F428CF1092470125CFA4E0B0E0EBEC81
:10339000F9E10C942C340E94AF3210E04BE06DEF59
:1033A000812F9DDB40E06AE0812F99DB8FE39CE970
:1033B0000197F1F700C0000040E060E0812F8FDB53
:1033C00040E061E0812F8BDB40E066E0812F87DB0E
:1033D00040E06DEF812F83DB00E040E0602F812F24
:1033E0007EDB0F5F0231C9F740E0602F812F77DB72
:1033F0000F5F0432C9F740E0602F812F70DB0F5F51
:10340000043BC9F74BE06DEF812F69DB41E06AE0D7
:10341000812F65DB40E06DEF812F61DB81E0810F63
:1034200011E0823009F0BACF0CEA12E024EAC22E91
:10343000EE24E394F12CDD24D39444E050E0B80171
:10344000CE0101960E94B0346A814B812C81898122
:103450008370E62FE695E695E695C89EC001112497
:103460008B5C9C4FE80FF92FF11DEF56FF4F6770F3
:10347000D70102C0AA0FBB1F6A95E2F730813A2B31
:103480003083E42FE695E695E695E80FF92FF11DD8
:10349000EF56FF4F4770B70102C0660F771F4A957E
:1034A000E2F73081362B3083E22FE695E695E695FC
:1034B000E80FF92FF11DEF56FF4F2770D70102C01B
:1034C000AA0FBB1F2A95E2F79D013081232B208391
:1034D0008D559F4FFC01D0820C5F1F4FF3E00C36DF
:1034E0001F0709F0AACF8091D803811581F096ECCF
:1034F000E92E93E0F92E10E0D7014D917D01612F67
:1035000080E0EDDA1F5F1231B9F71092D803809195
:103510007C04811581F08AE6E82E84E0F82E10E024
:10352000F70141917F01612F81E0D9DA1F5F1231EC
:10353000B9F710927C042496E8E00C944834A4E097
:10354000B0E0E5EAFAE10C942F34FC01F62E042FEA
:10355000122FC09708F041C0EE0FFF1FEE0FFF1FA4
:10356000BF0164557D4F44E050E0CE0101960E94BA
:10357000B03489818370AA814A2F50E02B8130E0DA
:10358000EC81F0E064EA869FC0011124BC016B5C11
:103590007C4FA60FB72FB11DAC91AF110CC0DB0152
:1035A000A20FB31FAC91A01306C0DB01AE0FBF1F6B
:1035B0006C91611791F08B5C9C4FDC01A40FB51FDF
:1035C000FC92280F391FD9010C93E80FF91F1083C3
:1035D00080579F4F21E0FC0120832496E5E00C9466
:1035E0004B34FF920F931F93CF93DF93182F062F27
:1035F000F42EC0E0D0E02F2D402F612FCE019FDFB1
:103600002196C033D105B9F7CDB7DEB7E5E00C940C
:103610004B341F921FB61F9211248F939F93AF9329
:10362000BF938091CA04811113C080912D039091A2
:103630002E03A0912F03B09130034196A11DB11D1F
:1036400080932D0390932E03A0932F03B093300308
:10365000BF91AF919F918F911F901FBE1F901895A2
:103660002FB7F89480912D0390912E03A0912F03F2
:10367000B09130032FBF0895CF93DF93EC01F0DFBB
:103680008C1B9D0BDF91CF910895EADF20917B0584
:1036900030917C05232B211521F080931505909303
:1036A000160520917D0530917E05232B211521F0F3
:1036B0008093130590931405E0913B05F0913C0530
:1036C000309741F00680F781E02D309719F08AE7B6
:1036D00095E009950895611509F449C0E3E3E80F01
:1036E000E33150F4F0E0E454F94C0C9488340E9437
:1036F000F811819580937C05C8CF0E94F811FACF0C
:103700000E94F811819580937B05F6CF0E94F811F5
:10371000FACF0E941D1280937D05EECF0E941D12EC
:103720008195F9CF0E941D12819580937E05E4CF8B
:103730000E941D12FACF815D990B21E030E001C09B
:10374000220F8A95EAF780917A05822B80937A0579
:10375000D3CF80917905816080937905CDCF809119
:1037600079058260F9CF809179058460F5CF409129
:103770007B058D3C59F480917C0587FF0DC010922C
:103780007C05411559F41092780508C08E3C81F4EF
:1037900080917C0518169CF3411581F080917D0580
:1037A00090917E05892B8111A7CF10927705A4CF28
:1037B0008F3C41F447FFF0CF10927B0580917C0550
:1037C0008115E0CF803D19F41416B4F3E5CF909144
:1037D0007D05893D29F41916FCF610927D05DCCF94
:1037E0008A3D19F497FFD8CFF8CF90917E058B3D95
:1037F00029F497FFD1CF10927E05CECF8C3D19F4DE
:103800001916CCF3C9CF9FE2980F983090F4815DE0
:10381000990B21E030E0B90102C0660F771F8A954D
:10382000E2F7CB01809590917A05892380937A0500
:10383000B3CF8D3D31F4809179058E7F80937905EA
:10384000ABCF8E3D21F4809179058D7FF7CF8F3DF1
:1038500009F0A2CF809179058B7FF0CFCF93C82F4D
:103860008115C9F08CEF8C0F813A90F5809115018C
:10387000813021F480918E0587FD0FC0EEEEF2E0DD
:103880008191C81701F122E0E43FF207C9F78C2FBC
:103890000E94A4124DDBCF910895EC2FE695E6959A
:1038A000E695F0E0EC50FD4F828190E04C2F4770A0
:1038B00021E030E002C0220F331F4A95E2F7822355
:1038C0009323892B21F38C2F0E94D81231DBDFCF79
:1038D00080E28C0F883068F4C77081E090E001C00E
:1038E000880FCA95EAF7C0918905C82BC09389054E
:1038F000D1CF8BE58C0F833038F42C2F2452330B2F
:10390000C9010E945412C7CFE8E5EC0FEB3150F427
:10391000F0E0EE0FFF1FEF56FD4F808191810E9476
:103920007C12B9CF83E38C0F833108F0B4CF61E010
:103930008C2FD1DEB0CFCF93C82F67EF77E10E94F5
:10394000E2078C2F8BDFCF910895811559F19CEF01
:10395000980F913A18F40E94D812EACA90E2980F90
:10396000983050F4877091E001C0990F8A95EAF77A
:10397000892F0E940409F1CF9BE5980F933020F422
:1039800080E090E00C94541298E5980F9B3120F45D
:1039900080E090E00C947C1293E3980F933110F444
:1039A00060E099CE0895CF93DF93EC01CEDF66E01F
:1039B00078E1CE010E94E207DF91CF9108958FE375
:1039C0009CE90197F1F700C000008091D305843095
:1039D00089F038F4813039F0833049F01092D30502
:1039E00008958530D9F783E19AE0DDDFF7CF8AE1EA
:1039F00098E1FBCF84E198E0F8CF8FE39CE9019751
:103A0000F1F700C000008091D505833089F038F4CB
:103A1000813039F0823049F01092D5050895853013
:103A2000D9F789E190E0BFDFF7CF89E198E0FBCFDC
:103A300089E19AE0F8CF8FE39CE90197F1F700C0A4
:103A400000008091D705833099F038F4813049F037
:103A5000823059F01092D7050895843061F0853096
:103A6000C9F784E09AE19FDFF5CF87E398E1FBCFC8
:103A700087E19AE1F8CF8CE19AE1F5CFCF93DF931C
:103A8000D82FC92F58DF8D2F9C2F8DDFDF91CF913D
:103A90000895CF93DF93EC018A81833049F483E169
:103AA0009AE0ECDF83E19AE0E9DF83E19AE0E6DF88
:103AB0008A81843018F083E19AE0E0DFDF91CF91D2
:103AC00008950E94CB078093D305843061F028F4D9
:103AD000813079F0833021F00895853039F00895F0
:103AE0008AE198E128CF84E198E0FCCF83E19AE075
:103AF000C5DF83E19AE0F6CFCF93DF93EC018A81B3
:103B0000833049F489E190E0B9DF89E190E0B6DFE4
:103B100089E190E0B3DF8A81843018F089E190E098
:103B2000ADDFDF91CF9108950E94CB078093D5053B
:103B3000833061F028F4813031F489E190E005C0F0
:103B4000853039F0089589E198E0F5CE89E19AE071
:103B5000FCCF89E190E092DFF0CFCF93DF93EC01CF
:103B60008A81833049F484E09AE188DF84E09AE135
:103B700085DF84E09AE182DF8A81843018F084E076
:103B80009AE17CDFDF91CF9108950E94CB0780936B
:103B9000D705833071F028F4813041F484E09AE154
:103BA00007C0843049F0853051F0089587E398E1EB
:103BB000C2CE87E19AE1FCCF8CE19AE1F9CF84E0B3
:103BC0009AE15CDFEBCF109289058091150181307D
:103BD00021F580918E0587FF20C0E6EFF2E08EE1AF
:103BE000DF011D928A95E9F780E090E00E9454126F
:103BF00080E090E00E947C121092900599D985E0B7
:103C0000EAE7F5E0DF011D928A95E9F71092780561
:103C1000109277051092790538CDEEEEF2E086E04D
:103C2000DFCFCF93DF93D82FC92F209155052830B0
:103C300010F0C9DF20E0E22FF0E0EE0FFF1FEB5B9A
:103C4000FA4FD083C1832F5F20935505DF91CF9129
:103C50000895AAE2B0E0EFE2FEE10C9431348DE188
:103C600093E0FC0101962091F100208323E085324E
:103C70009207B9F780911E03893009F459C0C8F43E
:103C8000823009F4B7C0833009F486C0813089F1ED
:103C90008091E80083FFEBC080911D0390911E038B
:103CA0009A3008F0E4C0E92FF0E0E153F94C0C94AD
:103CB00088348A3009F48DC08B3051F780911D0310
:103CC000813231F78091210390912203892B01F7F2
:103CD0008091E800877F8093E8000E94771381E05D
:103CE00090911F03911101C080E0809315016BDF5B
:103CF000CFCF80911D03813A59F68091E800877FEC
:103D00008093E8008091210390912203892B61F038
:103D100060E080E090E070E00E941E138091E80077
:103D20008B778093E800B4CF68E085E293E0F3CF2F
:103D300080911D03813209F0ABCF809121039091D6
:103D40002203009719F0039709F0A2CF8091E800B1
:103D5000877F8093E8008091E80082FF18C09091EF
:103D6000F3008091F200029731F48091F1008130EC
:103D700011F0863021F48091F1008093140180913C
:103D8000E8008B778093E8000E94771381CF8091C1
:103D900018058111E0CF7CCF80911D03813A09F095
:103DA00077CF8091210390912203892B09F070CF66
:103DB0008091E800877F8093E8008091E80080FF91
:103DC000FCCF809115018093F1008091E8008E77FF
:103DD000D9CF80911D03813209F05ACF8091E8003C
:103DE000877F8093E8000E9477138091200380935F
:103DF00013014ECF80911D03813A09F049CF809184
:103E0000E800877F8093E8008091E80080FFFCCF86
:103E100080911301D8CF803889F0823841F58091A4
:103E200021038F70873018F58093E9008091EB00B3
:103E300085FB882780F91092E90006C08091CC04A8
:103E4000880F90911A03892B9091E800977F9093A7
:103E5000E8008093F1001092F1008091E8008E77E5
:103E600023C0811116C080911F03813011F1809110
:103E7000E80083FF0AC08091E800877F8093E80014
:103E80008091EB0080628093EB00AA96E3E00C94B3
:103E90004D34823061F780911F03811589F01092B3
:103EA000E9008091E800877F8093E8000E94771303
:103EB000DECF81E0933009F080E08093CC04EFCF37
:103EC000809121038F702FEF280F263080F680938A
:103ED000E9002091EB0020FFE2CF933031F4809194
:103EE000EB0080628093EB00DACF9091EB00906161
:103EF0009093EB0021E030E0A90102C0440F551F70
:103F00008A95E2F74093EA001092EA008091EB0074
:103F10008860E8CF8111ABCF10911F031F7780918C
:103F2000E3008078812B8093E3008091E800877F15
:103F30008093E8000E9477138091E80080FFFCCF17
:103F40008091E30080688093E30083E0111101C059
:103F500082E0809318058BCF8058823008F087CF9D
:103F600080911F03909120038C3D53E0950799F5B4
:103F700083E08A838AE289834FB7F894DE0113963F
:103F800020E03EE051E2E32FF0E0509357008491AF
:103F900020FF03C082958F703F5F8F708A30C8F01A
:103FA000895C90E08D939D932F5F243161F74FBF23
:103FB0008091E800877F8093E8006AE270E0CE019C
:103FC00001960E941E138091E8008B778093E80091
:103FD0004ECF805DE6CF292F33272330310509F4FA
:103FE0004EC078F52130310509F488C084E790E0AF
:103FF000E6ECF1E02230310509F039CF2091E800FC
:10400000277F2093E8002091230330912403821717
:10401000930708F49C0140E02115310509F073C0B5
:10402000411171C08091E80082FDCDCF80911805CB
:10403000811549F2853039F28091E80083FFF2CF93
:10404000C2CF80912103909122032132310509F4DE
:1040500046C02232310509F00ACF8430910508F0BC
:1040600006CFFC01EE0FFF1FE35AFE4F0190F081D7
:10407000E02D875A9E4FDC018C9190E010C09C018E
:104080003327823021F12330310568F4232BB9F432
:10409000E8EAF2E0E4918E2F90E0E8EAF2E000979F
:1040A00009F4E5CEABCF2330310509F0E0CEECE4E6
:1040B000F2E0E4918E2F90E0ECE4F2E0F0CFEEE756
:1040C000F2E0E4918E2F90E0EEE7F2E0E8CFE6E652
:1040D000F2E0E4918E2F90E0E6E6F2E0E0CF84306B
:1040E000910508F0C4CEFC01EE0FFF1FEB59FE4F07
:1040F0000190F081E02D89E090E080CF82E190E0B6
:10410000EAE3F2E07BCF80911805811509F45BCFDB
:10411000853009F458CF8091E80083FD54CF809119
:10412000E80082FD7FCF8091E80080FF75CF9091FD
:10413000F3008091F2002115310519F088309105C6
:1041400050F041E0089709F040E08091E8008E7758
:104150008093E80061CF44914093F1003196215063
:1041600031090196E8CF803809F081CE8091E800CE
:10417000877F8093E80080911B038093F1006DCED0
:10418000811175CE10911F03123008F070CE80910E
:10419000E800877F8093E80010931B030E94771349
:1041A000111521F184E08093180542E061EC81E073
:1041B0000E947B1442E161EC82E00E947B1442E2A7
:1041C00061EC85E00E947B1442E261EC83E00E9496
:1041D0007B1442E260EC84E00E947B14809118051D
:1041E000843051F482E08093160141CE8091E30047
:1041F00087FDD8CF81E0D7CF81E0F5CFE4DC2FEF8A
:1042000084E39CE0215080409040E1F700C0000032
:104210000895EF92FF920F931F93CF93DF93C62FD2
:10422000D42F122F8115A1F06093870519DA90938E
:10423000190380931803C77081E001C0880FCA95E5
:10424000EAF70E94EE17CDB7DEB7E6E00C944A34E9
:1042500080918705681332C0E0901803F09019032D
:10426000FFD98E199F09883C910540F500E20D0F9A
:10427000CD17A9F0C770FF24F3948F2D01C0880FCC
:10428000CA95EAF70E940018083048F48D2F87700D
:1042900001C0FF0C8A95EAF78F2D0E94EE17812F3F
:1042A000DDDA812F52DB083070F6D77081E001C073
:1042B000880FDA95EAF70E940018C5CFC77081E031
:1042C00001C0880FCA95EAF7F6CFA0E0B0E0EBE6B0
:1042D000F1E20C942C348C01DC0114968C91811544
:1042E00009F4DDC061E0C8010E94410BEC01F80156
:1042F0008581811519F1809183059091840500973E
:10430000E9F0C817D907D1F0FC01FF278330D0F5B9
:1043100054E0EE0FFF1F5A95E1F7E95EFE4F8581ED
:1043200084608583D183C083CF010E942B181092B3
:10433000900561E0C8010E94410BEC01C115FEE748
:10434000DF0709F46AC008F5C03238E7D30709F47B
:1043500084C0C23488E7D80709F47FC0CF32F6E4BE
:10436000DF0709F0AEC0D80115968C911597169607
:104370009C91903108F487C1811509F481C18FE2C5
:1043800090E065C1E0E0F0E0CACFC1309EE7D90718
:1043900009F090C0D80115968C91811599F1809102
:1043A0007F058F5F8770982F853010F090E080E058
:1043B00020917F05287F922B90937F05BFEF8B9FE5
:1043C000C0011124959587959595879590938900BF
:1043D0008093880090938B0080938A0090938D0047
:1043E00080938C0040917F055091800560918105FC
:1043F000709182058FE090E00E94193580918C05C4
:104400000E940D08FE01E851FC47E730F10508F075
:10441000C0C0E752F94C0C948834F80185818115AD
:1044200089F390917F05892F877F93FF8860809320
:104430007F0583FF05C040E060E080E00E947C0CC7
:1044400040917F05509180056091810570918205B2
:104450008FE090E00E941935D5CFD80115968C9148
:10446000811569F08091E0058F3FF1F41092E0052D
:104470000E94E61340E060E080E00E947C0C8091A6
:104480008D058770811559F0F8018581811539F006
:1044900080918F0582FF03C082E00E94A216CDB7F3
:1044A000DEB7E8E00C9448348FEF8093E0050E947B
:1044B000E613E5CFC134BEE7DB0709F401C108F01C
:1044C00089C0C03326E4D207B0F4CB3134E4D3073B
:1044D00009F4B1C0C63085E4D80709F093CFF801DC
:1044E00085819681903108F4C3C0811509F4BDC05F
:1044F00086E090E0ACC0C03397E4D90709F4CBC0A4
:10450000C034AEE7DA0709F436C1CE0197558115FC
:10451000914008F077CFFE01FF27C33008F0AFCFFE
:1045200034E0EE0FFF1F3A95E1F7CF01895E9E4F11
:104530007C01D80115968C91E45EFE4F908180FB42
:1045400090F99083811509F422C18AD89093860549
:1045500080938505F70182818F5F8283809190052A
:1045600090918905892B838380918A058483468174
:10457000578166857785C7010E944012D70115963D
:104580008C9181FD01C19C2F8D2F90938305809389
:104590008405D80115969C91911509F4F8C41092E0
:1045A00087059E0130572332310508F0D9C484E0D5
:1045B00090E00E94F33490938F0580938E05FE0166
:1045C000E150F047E232F10508F020C1E052F94C29
:1045D0000C948834C434BEE7DB0709F4AEC0B8F4E9
:1045E000D80115968C91C234DE4709F08FC0811531
:1045F00009F486C0C09189058C2F8272811509F457
:104600007CC082E20E94001888E392E069C0C53451
:10461000EEE7DE0709F0F6CED80115968C918115EC
:1046200009F4A3C0809189058272811509F49AC0AA
:1046300086E392E00CC0D80115968C9115971696DA
:104640009C91903150F0811521F08BE190E073D96D
:1046500016CF8BE190E0A7D912CF811519F08BE12D
:1046600098E0F5CF8BE198E0F6CF86E090E0F3CFCD
:10467000811519F086E098E0EACF86E098E0EBCF6C
:104680008FE290E0E8CF811519F08FE292E0DFCF62
:104690008FE292E0E0CFF80185819681903140F081
:1046A000811519F080E390E0D2CF80E390E0D3CF82
:1046B000811519F080E392E0CACF80E392E0CBCF7E
:1046C000D80115968C91811591F0C09189058C2F98
:1046D0008272811549F082E20E9400188DE292E018
:1046E0002AD9C0938905CBCE84E390E0B0CF8DE288
:1046F00092E059D984E390E0AECF86E390E0A7CF73
:1047000088E392E050D986E390E0A5CF811579F057
:10471000C09189058C2F8272811531F082E20E944E
:10472000001884E392E0DCCF8DE290E090CF84E348
:1047300092E039D98DE290E08ECFF8018581811524
:1047400059F0809189058272811519F087E392E012
:104750007ECF87E390E07BCF87E392E024D987E3A5
:1047600090E079CF88E390E072CF86E392E01BD9A6
:1047700088E390E070CFF8018581811509F47FCE40
:1047800081E00E9450147BCE90E080E0FECEF701E5
:104790004485558566857785C7010E944012D701FB
:1047A00015968C9181FFF5CEC7010E94101880915B
:1047B000830590918405C817D90709F0EACE1092B5
:1047C000840510928305E5CE26E241EE61EEF80104
:1047D000858106C027E245EE65EED80115968C91DD
:1047E00018DD4DCE26E241EE60EEF1CF27E245EE38
:1047F00064EEF3CF26E241EE62EEE9CF27E245EE2A
:1048000066EEEBCF28E241E065EEE1CF80918E05C8
:10481000816080938E0560918E0570918F0584E094
:1048200090E00E942135CFD92ACE80918F058860F3
:1048300080938F05F0CF80918E058260EACF8091C2
:104840008E058460E6CF80918E058860E2CF8091EE
:104850008F058160EDCF80918F058260E9CF8091D7
:104860008E058061D6CF80918E058062D2CF8091F7
:104870008E058064CECFA7D980918E058068C9CF80
:1048800080918E058C60C5CF80918F058360D0CFDD
:1048900080918E058E7FBDCF80918F05877FC8CF99
:1048A00080918E058D7FB5CF80918E058B7FB1CFA6
:1048B00080918E05877FADCF80918F058E7FB8CF99
:1048C00080918F058D7FB4CF80918E058F7EA1CF93
:1048D00080918E058F7D9DCF80918E058F7B99CFA6
:1048E00072D980918E058F7794CF80918E05837FCA
:1048F00090CF80918F058C7F9BCF80918E059927DB
:1049000082FF939590FB82F990FB83F982CF80918F
:104910008F05982F909590FB80F990FB81F988CFB7
:1049200090918E05892F8F7B96FF806472CF4BD933
:1049300090918E05892F97FB87F980586ACF61E0A7
:104940008EE090E00E94073566CF60E0F9CF90914D
:104950008E05892F8F7E94FF80615BCF90918E05AD
:10496000892F8E7F90FF816054CF90918F05892F82
:10497000877F93FF88605CCF89E204C389E212C31A
:104980008272FE01E052F847EB30F10508F056C0A4
:10499000EE5FF84C0C948834809189058272FE0198
:1049A000E054F847ED30F10508F048C0E35FF84CFB
:1049B0000C9488340E94EC1362CD811541F10E9461
:1049C00073145DCD811541F10E941C1458CD8115E1
:1049D00041F10E942F1453CD811541F10E944514DD
:1049E0004ECD811541F10E94F51349CD0E94DC1195
:1049F0005ECD8091DB05837081111092470180911B
:104A0000DB058C7F8093DB0552CD8115C1F20E94BE
:104A10006A1435CD8115C1F20E94141430CD811570
:104A2000C1F20E9424142BCD8115C1F20E943A14C8
:104A300026CD8115C1F20E94FE1321CD9E01205E7C
:104A4000324520323105A8F491112AC0CF7181E09E
:104A500090E0FC0102C0EE0FFF1FCA95E2F7EF01E4
:104A60006E2F83E090E00E9407358C2F0E947A160B
:104A700006CD9115A9F0CA35FCE7DF0709F47EC021
:104A800008F05EC0C1303CE7D30709F474C0C330FE
:104A90008CE7D80709F469C0C115DC4709F461C087
:104AA000D80115968C911597ED90FC90811509F41D
:104AB00069C0C7010E94180BC82F682FC7010E9448
:104AC0002D08B7018C2F0E940C090E941D0AD82FB7
:104AD000C92FF801D580C680C2942FE0C2228091F0
:104AE0008D058770811501F1ED2CD114F1F0892F1E
:104AF000807F803461F080E28D0F8830A8F0892FAC
:104B0000807E803221F4D23078F0C11469F0809137
:104B10008F0582FF09C082E00E94A21680918D0558
:104B20008770EE24E3948111E12CEC2FE295EF7075
:104B3000C03C08F092C0F0E0E65EF84C0C9488347B
:104B4000CB35ACE7DA07E1F080918F05002482FFD6
:104B50000394802DCC35DC4709F0A2CF0E94821748
:104B60009FCF4CDB0E94C9158ACC6FEF7FEF80E0AE
:104B700090E00E94213542DB0E94131381E0EECFCA
:104B800080E0ECCFC7010E946308C82F9ACFFC2FAA
:104B9000FF70FF2EC03118F0F29490EFF922D1147B
:104BA000B9F0F11469F080E28D0F883010F0D11166
:104BB00009C0809189058F29809389050E949817E3
:104BC0008D2F43C0809190058F2980939005F6CF5B
:104BD0008D2F0E94A51CF11409F43FC080E28D0FB7
:104BE000883010F0D11104C08F2D0E94040906C036
:104BF000F094809190058F21809390050E949817E2
:104C00002CC02C2F2F70F22EC07FC03219F0F294DE
:104C100080EFF822D11549F0D13009F468C0D114E1
:104C200009F472C0C114B1F1CBCF80918F0582FD20
:104C30002DC0D11469F0F11439F0809189058F29C4
:104C4000809389050E94981780E00E942E1C05C061
:104C500080E00E94A51CF110C7CFE11409F4B6C092
:104C600080918D0580FDB2C0D80115961C92869565
:104C7000869586950E948A16C80127DB80918D054E
:104C80008695869586950E949416A0C0D11499F0B9
:104C9000C11004C08F2D0E94EE17DFCF31E0C31288
:104CA000DCCF80918A059F2D9823F916B1F28F29C8
:104CB00080938A05D2CFC110D0CF8F2D0E940018CB
:104CC00090918A058F2D8923811529F08F2D80954C
:104CD000892380938A0580918B059F2D98239115B8
:104CE00009F4BBCFF094F822F0928B05B6CFD11423
:104CF00029F082E0C81608F0B0CFCCCFC110ADCFFC
:104D00008F2D0E940018A9CFC114D1F3D93349F4D3
:104D10009FEFA7EEB3E09150A040B040E1F700C094
:104D200000008D2F0E94A51C98CF8C2F869586950C
:104D30008370811569F0813009F08FCF8D2F9C2F02
:104D40009370D11002C080E090E00E947C1285CF69
:104D50008D2F9C2F9370D11002C080E090E00E94B4
:104D600054127BCF6D2D8D2F0E946B1B76CF8C2F15
:104D70008370811138C0D11027C04D2F42954695C0
:104D80004770440F440F8D2F8F70042E01C0880F81
:104D90000A94EAF72D2F2071D4FF07C02FE030E0EE
:104DA00001C0220F4A95EAF72095C695C695C370B3
:104DB000C230A1F0C33081F03091E405C13059F028
:104DC000822B83230E947A160E94451260E0C8015C
:104DD0000E94410B64CB832B822BF4CF822B9091CA
:104DE000E4058927EFCFD11451F1C0FFEDCF4D2F4E
:104DF000429546954770440F440F8D2F8F70042EB7
:104E000001C0880F0A94EAF72D2F2071D4FF07C044
:104E10002FE030E001C0220F4A95EAF72095C695B1
:104E2000C695C370C23089F0C33069F030918C05EB
:104E3000C13041F0822B83230E948416C5CF82307B
:104E4000B0F6C2CF832B822BF7CF822B90918C05AB
:104E50008927F2CFCF70D11439F08C2F0E948A1697
:104E60008D2F0E94EE17B0CF8D2F0E9400188C2F2F
:104E70000E949416A9CFD23F89F170F4D03FC9F0B7
:104E8000D13F91F0D11409F457C0C11409F451C0B5
:104E90008D2F0E942E1C98CFD33F39F1D43F91F72C
:104EA00090918F0592FD2CC08C2F8F71D11401F33E
:104EB00019C0D11471F0C11087CFCF7181E090E09B
:104EC000FC0101C0EE0FCA95EAF780918C058E2790
:104ED000B3CFF2E0CF1608F077CFEFCF8C2F8F71E2
:104EE000D110C6CF0E948A166FCF80E0D11409F48A
:104EF000A3CFCF7181E001C0880FCA95EAF79CCF9C
:104F0000D11461F08C2F8F7192FFECCF982F990FF5
:104F1000990F990F936090938D05E4CF81E00E94E3
:104F2000A21622E0C21608F44FCF82E00E94A21619
:104F30004BCF8C2F8F71D6CFC11479F0D93349F470
:104F40003FEF87EE93E0315080409040E1F700C0A2
:104F500000008D2F0E94A51C37CF8C2F8F7188CF1A
:104F600080918905C631BCE7DB0709F009CD8A7A53
:104F700091E0811101C090E090938805811509F4BA
:104F8000FBCC85E30E94A4120E94981778CAC63110
:104F9000ECE7DE0709F000CD80918805811509F462
:104FA000EDCC85E30E94D812EFCF8091D1058031FE
:104FB00078F48091D005811559F0E0919205209107
:104FC00091053091CC054091CB0557E02E1301C0DF
:104FD00008956E2F70E05E9FF0011124DF01AD5641
:104FE000BA4F14968C911497811551F111968C91AA
:104FF0001197831325C08C91841322C015968C9130
:10500000159781111DC012968D919C91A091CD058F
:10501000B091CE058A1B9B0B883C910588F480914A
:10502000D1058F7080618093D105E756FA4F80815A
:105030008F70806180838BEC95E047D90C94D30806
:10504000FB013196E770C2CFCF92DF92FF920F93B0
:105050001F93CF93DF93182F092F87E0F82EC0916D
:10506000920580919105C81791F1FC9EE0011124F1
:10507000CE018D569A4F6C01FC018581811589F016
:10508000C6010E94690B811561F0FE01E756FA4FD7
:1050900020812F7020612083F601808191810E9400
:1050A000111EC60112D92091920530E02F5F3F4FAB
:1050B0002770332720939205CD56DA4F89818013CC
:1050C000CECF88818113CBCF8D81811541F2DF91C5
:1050D000CF911F910F91FF90DF90CF900895ADE099
:1050E000B0E0E5E7F8E20C9424348C0186E0F801A6
:1050F000DE01189601900D928A95E1F7D8018C9007
:1051000011969C9011971296ED90FC90139714961F
:10511000CC9014971596DC90D1100CC05091550589
:10512000252F30E0E0E08E2F0E2E000C990B821719
:10513000930744F13BECA32E35E0B32E8091CF05CD
:10514000811152C0C114D9F0D11409F42EC2C80182
:105150000E94690B811509F428C287E0F801D50186
:1051600001900D928A95E1F78091CF05813031F45D
:105170008091CB059091CC050E945D0B16DFFF243A
:10518000F3946BC0880F991F8B5B9A4FDC011196CB
:105190004C911197941203C08C91881611F0EF5F17
:1051A000C2CFEF3F39F2D80116968C9116978F70C7
:1051B000806116968C93E517A0F4AFEFA50FA0932E
:1051C0005505EA1770F4F0E0EE0FFF1FEB5BFA4FA6
:1051D000B0E0AA0FBB1FAB5BBA4F8D919C9191833E
:1051E00080830E949708A6CF60E08BEC95E00E9438
:1051F000410B9C017090D0058091CD059091CE051A
:10520000F701E81BF90B711409F49FC1E83CF105A3
:1052100008F076C1C11409F4B2CF9091CC05D80141
:1052200011964C9111978091D105803108F02AC1D7
:10523000491318C04091CB059C91491313C0D1105C
:1052400011C08F7080618093D1058BEC95E03DD8C3
:105250008091D105F8018683F12C8F2D2D96E0E108
:105260000C94403430522115304308F07DC0D110E9
:10527000D9C040E0692D882D0E94051581114AC0D2
:1052800040E0692D882D0E940515F82E811509F43E
:105290009DC08BEC95E019D860E08BEC95E00E9406
:1052A000410B8C01F09092057F2C88E0E82E9BEC5E
:1052B000892E95E0992E27E0422E8091910578164F
:1052C000A1F0A72CB12C479CC0011124FC01ED5684
:1052D000FA4F6F0160E0CF010E94410B582E692EFA
:1052E000D60115968C91811148C0B8E0EB1618F4E0
:1052F00017E0FE1059C088859985A6DE0E949708A0
:105300000E94D30887E0EBECF5E0DF011D928A955F
:10531000E9F7A2CF60E0C8010E94410BB8018BEC15
:1053200095E00E94A4088111ABCF8091D1058F70C8
:1053300080618093D1058091CB059091CC050E942E
:10534000111E8BEC95E00E946521EBECF5E087E007
:10535000DF011D928A95E9F78885998575DE0E949F
:1053600097080E94D30878CFD11409F489CF80918F
:10537000D10581608093D1056FCF10520115E0E314
:105380001E0708F0B2CFB601C4010E94A408811123
:1053900001C07E2CC5010196E72CF82FF7707F2EF7
:1053A000052D162D460189CF1F9DC00111248D5654
:1053B0009A4F0E9465212091920530E02F5F3F4F68
:1053C00027703327F22E2093920593CF88859985F5
:1053D0000E945D0B292F22952F70903450F49F70FE
:1053E000223080F0911599F0F8019681903178F48F
:1053F00034CF2A5F2F70223078F0C8010E946521D7
:10540000F72C2BCF911519F0811509F426CF805E6A
:10541000883008F422CFF1CF803F08F41ECF815F9F
:105420008330F7CF8091D10581608093D10560E012
:10543000C8010E94410BB8018BEC95E00E94A408C2
:1054400081110ACF8091D1058E7F8093D105C8014B
:105450000E94690B811100CF8091D1058F7080610E
:105460008093D1058091CB059091CC050E94111EAF
:105470000E9497088BEC95E00E946521EBECF5E02B
:1054800087E043CF491315C02091CB05F8019081E7
:1054900029130FC0D1100DC08683C8010E94652159
:1054A00087E0F801ABECB5E001900D928A95E1F749
:1054B00066CEC8010E94690B811509F476C0D1142B
:1054C00009F473C08091D105803288F02091CB051A
:1054D0003091CC053A832983FC82EB829091CF05F1
:1054E0009D831E828F83CE0101960E94652187E0F5
:1054F000F801ABECB5E001900D928A95E1F73ECE54
:105500008091D105803138F48BEC95E00E946521C3
:1055100087E0D501FBCEC11409F431CE2091CC0532
:10552000F80191812913C5CF2091CB0590812913D2
:10553000C0CFD110BECF8683C8010E94652187E00D
:10554000D5011D928A95E9F71ACEE83CF10500F7DE
:10555000C11409F414CED11441F19091CC05F80195
:105560008181981318C09091CB058081981313C046
:105570008091D10580FD94CF803108F491CF86834E
:10558000807F803F09F489CF8681982F907F905F3C
:105590008F70892B81CFC8010E94690B8111A7CF21
:1055A0008091D10581608093D105C8010E94652159
:1055B000E6CDA4E3B0E0EFEDFAE20C942C344FA773
:1055C00058AB69AB7AAB8BAB192F9CAB9111109296
:1055D00090051EA686E0FE01BF96DE01989601901A
:1055E0000D928A95E1F70BA9011501F1CFA4D8A876
:1055F0000CA71DA77E0188E2E80EF11C61E0C7013F
:105600000E94410B8091E505811561F087E0811BC7
:105610008983CA82DB828EEF8C8360E2CE010196A1
:105620000E94341661E0C7010E94410B0CA71DA720
:1056300087E0FE01B896DE01919601900D928A9561
:10564000E1F7CE0181964BDD811128C020919105B3
:105650003091920587E0FE01B196DE01119601902E
:105660000D928A95E1F78DA18115C1F0822F90E00E
:105670000196877099273817190691F097E0929F45
:10568000D0011124AD56BA4FFE01319601900D9212
:105690009A95E1F7809391050E94D30817E01EC008
:1056A0000E94E31D109291051092920587E0EBECA9
:1056B000F5E0DF011D928A95E9F7F0CF189FC00150
:1056C00011248D569A4F0BDD811571F08091920552
:1056D00090E00196877099278093920580919205BA
:1056E000909191058913EACFE496E8E00C94483450
:1056F000A6E0B0E0EEE7FBE20C9430340E94301BF1
:105700008C018091190590911A058017910771F00D
:1057100019821A820E94301BBC0149815A8180E0A3
:1057200090E047DF10931A05009319052696E4E0F0
:105730000C944C340F931F93CF93DF9380914801C7
:1057400090914901892B41F510E0C0E007E00C0F72
:105750008C2F0E942415802F0E9424158C2F0E94CC
:105760002517D82F802F0E942517D82B1D2B0E947C
:10577000EF06CF5FC73051F7111549F181E08093F3
:1057800016030E94301B9093150380931403DF913E
:10579000CF911F910F910895809117038F5F809390
:1057A00017038111D1CF0E94DE1690E0909349013A
:1057B00080934801892B41F62FEF83EC99E021502B
:1057C00080409040E1F700C000000E9413138091D8
:1057D00016038115E1F2C0911403D09115030E94C4
:1057E000301B8C1B9D0B449790F24EE050E068EE0E
:1057F00075E08DEC94E00E94B934892B49F08EE07D
:10580000E8EEF5E0ADECB4E001900D928A95E1F799
:1058100010921603BCCFCDB7DEB7C756D1090FB66D
:10582000F894DEBF0FBECDBF85B7806885BF85B752
:10583000806885BF84B7877F84BF0FB6F894A8952A
:1058400080916000886180936000109260000FBEBC
:1058500080E890E00FB6F894809361009093610027
:105860000FBE81E08093160184E99BE09093EB02E8
:105870008093EA020E94C7130E94AB148091E20059
:1058800084608093E200789480911805811599F0E6
:105890008091E9001091EC008F70179511271795F2
:1058A000182B1092E9008091E80083FD0E94291EC8
:1058B0001F701093E90082E084BD93E095BD9AEFDC
:1058C00097BD80936E000E94DE1690E09093490190
:1058D000809348010E94EF060E94AE068EE0E8EE3B
:1058E000F5E0DF01282F1D922A95E9F7EDECF4E0B1
:1058F000DF011D928A95E9F780E090E00E94F33481
:10590000833E9E4F79F163EE7EEF80E090E00E944F
:10591000213560E082E090E00E94073581E08093CD
:10592000E40561E083E090E00E94073560E074E107
:1059300084E090E00E9421350E945D1810927F055E
:1059400010928005109281051092820584E0809368
:105950007F0540E050E0BA0183E190E00E941935F4
:105960000E94521882E090E00E94E6348093040581
:1059700084E090E00E94F33490938F0580938E052D
:10598000D9DEEFEFF3EF21E0E150F0402040E1F706
:1059900000C00000CFDE8091CD0480FF08C06FEF13
:1059A0007FEF80E090E00E9421350E94C91583E0DE
:1059B00090E00E94E6340E947A1680918C050E9445
:1059C0000D080E94C5191092A10440E150E06FEF4C
:1059D00070E08AEB94E0E3D71092DB0440E150E002
:1059E0006FEF70E084EF94E0DAD781E08093A00459
:1059F00048E050E067E170E08BED95E0D7D710927A
:105A0000A0048091DB05843010F40E945D1889EABF
:105A10008093800089E08093810024982C983F989F
:105A2000479A54985C9A55985D9A6E98769A569AC9
:105A30008FE090E0D3D760937F05709380058093CB
:105A400081059093820567701FEF169FB0011124A6
:105A5000759567957595679577277093890060931D
:105A6000880070938B0060938A0070938D00609320
:105A70008C005E980E94BF070E94C3070E94C70760
:105A80008FEF90E0909389008093880090938B0033
:105A900080938A0090938D0080938C000E94B607BB
:105AA0008FEF90E7A2E081509040A040E1F700C066
:105AB00000000E94B907BFEFE0E7F2E0B150E0401C
:105AC000F040E1F700C000000E94BC072FEF80E724
:105AD00092E0215080409040E1F700C000000E9419
